{
  "_format": "hh-sol-artifact-1",
  "contractName": "ProofOfReserves",
  "sourceName": "contracts/ProofOfReserves.sol",
  "abi": [
    {
      "anonymous": false,
      "inputs": [
        {
          "indexed": false,
          "internalType": "string",
          "name": "message",
          "type": "string"
        }
      ],
      "name": "Alert",
      "type": "event"
    },
    {
      "anonymous": false,
      "inputs": [
        {
          "indexed": false,
          "internalType": "bool",
          "name": "valid",
          "type": "bool"
        }
      ],
      "name": "ProofVerified",
      "type": "event"
    },
    {
      "anonymous": false,
      "inputs": [
        {
          "indexed": false,
          "internalType": "bool",
          "name": "valid",
          "type": "bool"
        }
      ],
      "name": "SMTProofVerified",
      "type": "event"
    },
    {
      "anonymous": false,
      "inputs": [
        {
          "indexed": false,
          "internalType": "bool",
          "name": "valid",
          "type": "bool"
        }
      ],
      "name": "VerkleProofVerified",
      "type": "event"
    },
    {
      "inputs": [],
      "name": "circulatingSupply",
      "outputs": [
        {
          "internalType": "uint256",
          "name": "",
          "type": "uint256"
        }
      ],
      "stateMutability": "view",
      "type": "function"
    },
    {
      "inputs": [],
      "name": "merkleRoot",
      "outputs": [
        {
          "internalType": "bytes32",
          "name": "",
          "type": "bytes32"
        }
      ],
      "stateMutability": "view",
      "type": "function"
    },
    {
      "inputs": [
        {
          "internalType": "uint256",
          "name": "_supply",
          "type": "uint256"
        }
      ],
      "name": "setSupply",
      "outputs": [],
      "stateMutability": "nonpayable",
      "type": "function"
    },
    {
      "inputs": [
        {
          "internalType": "bytes32",
          "name": "_root",
          "type": "bytes32"
        }
      ],
      "name": "updateRoot",
      "outputs": [],
      "stateMutability": "nonpayable",
      "type": "function"
    },
    {
      "inputs": [
        {
          "internalType": "bytes32",
          "name": "leaf",
          "type": "bytes32"
        },
        {
          "internalType": "bytes32[]",
          "name": "proof",
          "type": "bytes32[]"
        },
        {
          "internalType": "uint256",
          "name": "index",
          "type": "uint256"
        }
      ],
      "name": "updateRootWithProof",
      "outputs": [],
      "stateMutability": "nonpayable",
      "type": "function"
    },
    {
      "inputs": [
        {
          "internalType": "bytes32[]",
          "name": "innerChunk",
          "type": "bytes32[]"
        },
        {
          "internalType": "bytes32[]",
          "name": "outerProof",
          "type": "bytes32[]"
        },
        {
          "internalType": "uint256",
          "name": "chunkIndex",
          "type": "uint256"
        }
      ],
      "name": "updateVerkleRootWithProof",
      "outputs": [],
      "stateMutability": "nonpayable",
      "type": "function"
    },
    {
      "inputs": [
        {
          "internalType": "uint256",
          "name": "totalReserves",
          "type": "uint256"
        }
      ],
      "name": "verifyProof",
      "outputs": [],
      "stateMutability": "nonpayable",
      "type": "function"
    },
    {
      "inputs": [
        {
          "internalType": "bytes32",
          "name": "leaf",
          "type": "bytes32"
        },
        {
          "internalType": "bytes32[]",
          "name": "proof",
          "type": "bytes32[]"
        },
        {
          "internalType": "uint256",
          "name": "index",
          "type": "uint256"
        }
      ],
      "name": "verifySMTProof",
      "outputs": [
        {
          "internalType": "bool",
          "name": "valid",
          "type": "bool"
        }
      ],
      "stateMutability": "view",
      "type": "function"
    },
    {
      "inputs": [
        {
          "internalType": "bytes32[]",
          "name": "innerChunk",
          "type": "bytes32[]"
        },
        {
          "internalType": "bytes32[]",
          "name": "outerProof",
          "type": "bytes32[]"
        },
        {
          "internalType": "uint256",
          "name": "index",
          "type": "uint256"
        }
      ],
      "name": "verifyVerkleProof",
      "outputs": [
        {
          "internalType": "bool",
          "name": "valid",
          "type": "bool"
        }
      ],
      "stateMutability": "view",
      "type": "function"
    }
  ],
  "bytecode": "0x608080604052346100165761084c908161001c8239f35b600080fdfe608060408181526004918236101561001657600080fd5b600092833560e01c91826321ff9970146105495782632eb4a7ab1461052f575081633b4c4b25146105155781635f8e0790146104f25781638af70302146103585781638b6958ff146102875781639358928b146102685781639478e83d146100df5750639616af511461008857600080fd5b346100db5760207f8fdc8098b1072c4627a7560c1da68ee7745cc7fd263d83a1ac57176aac0b87b9916100d06100ca6100c036610598565b9391903691610687565b9061072e565b84555160018152a180f35b5080fd5b828434610265576100ef366105d0565b949396839192931561025257509583968651602098899184358382015282815261011881610617565b60019485945b80861061020b5750506101379350895193848092610703565b03600293845afa15610201579291908451959385925b898185106101605787548a51908a148152f35b90919293949597879061017487858a6107f0565b358a87166101d157906101a3918c5191858301528c8201528b815261019881610649565b8b5191828092610703565b0390855afa156101c7576101bc8651975b841c946106de565b92919094939461014d565b87513d87823e3d90fd5b6101ec918c5191858301528c8201528b815261019881610649565b0390855afa156101c7576101bc8651976101b4565b86513d86823e3d90fd5b92509261024261023491610248938d61022589888a6107f0565b35905194859284840190610703565b908152038084520182610665565b936106de565b928a92889261011e565b634e487b7160e01b855260329052602484fd5b80fd5b5050346100db57816003193601126100db576020906001549051908152f35b905034610354576020366003190112610354576001549035106102d15760207ff4d358772b552280f9395158c37bc77ddcbcdeaf62b20aa01276fb89d7ea1923915160018152a180f35b6060817ff4d358772b552280f9395158c37bc77ddcbcdeaf62b20aa01276fb89d7ea192360207fb42f912d2a6c6c7da83228b8b84b12578ffa4267ec2980110bcf1f59c08329869451868152a17f5265736572766573203c20537570706c7920646574656374656421000000000081519160208352601b6020840152820152a180f35b8280fd5b90503461035457610368366105d0565b9592939484156104df5750868395949551602096879187358382015282815261039081610617565b9060019788915b8083106104ab5750505090826103b292875193848092610703565b03600293845afa1561049f57815193928291905b8084106103fe5750509150507f9f06baddad59d2e9771002b48f7985142da5a42b051091f061e36a3ae14a17b395505551908152a180f35b909192939483899161041187858a6107f0565b358c8b1661046f5790610440918a5191858301528a82015289815261043581610649565b895191828092610703565b0390855afa15610465576104598351995b881c946106de565b929190989493986103c6565b85513d84823e3d90fd5b61048a918a5191858301528a82015289815261043581610649565b0390855afa1561046557610459835199610451565b508351903d90823e3d90fd5b928295508194610242916104c66104d59587610234966107f0565b358b5194859284840190610703565b88928b9492610397565b634e487b7160e01b885260329052602487fd5b5050346100db5760209161050b6100ca6100c036610598565b9054149051908152f35b8390346100db5760203660031901126100db573560015580f35b8490346100db57816003193601126100db57602091548152f35b8482346100db5760203660031901126100db5735815580f35b9181601f840112156105935782359167ffffffffffffffff8311610593576020808501948460051b01011161059357565b600080fd5b90606060031983011261059357600435916024359067ffffffffffffffff8211610593576105c891600401610562565b909160443590565b60606003198201126105935767ffffffffffffffff9160043583811161059357826105fd91600401610562565b93909392602435918211610593576105c891600401610562565b6040810190811067ffffffffffffffff82111761063357604052565b634e487b7160e01b600052604160045260246000fd5b6060810190811067ffffffffffffffff82111761063357604052565b90601f8019910116810190811067ffffffffffffffff82111761063357604052565b90929167ffffffffffffffff8411610633578360051b60405192602080946106b182850182610665565b809781520191810192831161059357905b8282106106cf5750505050565b813581529083019083016106c2565b60001981146106ed5760010190565b634e487b7160e01b600052601160045260246000fd5b9081519160005b83811061071b575050016000815290565b806020809284010151818501520161070a565b929190926000915b84518310156107ea576020808460051b8701015190600193848416156000146107b057610784600091604094855191858301528582015284815261077981610649565b845191828092610703565b039060025afa156107a657506107a090600051925b1c926106de565b91610736565b513d6000823e3d90fd5b916107d1600091604094855191858301528582015284815261077981610649565b039060025afa156107a657506107a09060005192610799565b50925050565b91908110156108005760051b0190565b634e487b7160e01b600052603260045260246000fdfea2646970667358221220c73ae585e3f19c1c693b890924721a52d57cb71cee8477f2f84bfe6908efc75d64736f6c63430008140033",
  "linkReferences": {},
  "deployedLinkReferences": {}
}