{"contracts/ProofOfReserves.sol":{"ProofOfReserves":{"abi":[{"anonymous":false,"inputs":[{"indexed":false,"internalType":"string","name":"message","type":"string"}],"name":"Alert","type":"event"},{"anonymous":false,"inputs":[{"indexed":false,"internalType":"bool","name":"valid","type":"bool"}],"name":"ProofVerified","type":"event"},{"anonymous":false,"inputs":[{"indexed":false,"internalType":"bool","name":"valid","type":"bool"}],"name":"SMTProofVerified","type":"event"},{"anonymous":false,"inputs":[{"indexed":false,"internalType":"bool","name":"valid","type":"bool"}],"name":"VerkleProofVerified","type":"event"},{"inputs":[],"name":"circulatingSupply","outputs":[{"internalType":"uint256","name":"","type":"uint256"}],"stateMutability":"view","type":"function"},{"inputs":[],"name":"merkleRoot","outputs":[{"internalType":"bytes32","name":"","type":"bytes32"}],"stateMutability":"view","type":"function"},{"inputs":[{"internalType":"uint256","name":"_supply","type":"uint256"}],"name":"setSupply","outputs":[],"stateMutability":"nonpayable","type":"function"},{"inputs":[{"internalType":"bytes32","name":"_root","type":"bytes32"}],"name":"updateRoot","outputs":[],"stateMutability":"nonpayable","type":"function"},{"inputs":[{"internalType":"bytes32","name":"leaf","type":"bytes32"},{"internalType":"bytes32[]","name":"proof","type":"bytes32[]"},{"internalType":"uint256","name":"index","type":"uint256"}],"name":"updateRootWithProof","outputs":[],"stateMutability":"nonpayable","type":"function"},{"inputs":[{"internalType":"bytes32[]","name":"innerChunk","type":"bytes32[]"},{"internalType":"bytes32[]","name":"outerProof","type":"bytes32[]"},{"internalType":"uint256","name":"chunkIndex","type":"uint256"}],"name":"updateVerkleRootWithProof","outputs":[],"stateMutability":"nonpayable","type":"function"},{"inputs":[{"internalType":"uint256","name":"totalReserves","type":"uint256"}],"name":"verifyProof","outputs":[],"stateMutability":"nonpayable","type":"function"},{"inputs":[{"internalType":"bytes32","name":"leaf","type":"bytes32"},{"internalType":"bytes32[]","name":"proof","type":"bytes32[]"},{"internalType":"uint256","name":"index","type":"uint256"}],"name":"verifySMTProof","outputs":[{"internalType":"bool","name":"valid","type":"bool"}],"stateMutability":"view","type":"function"},{"inputs":[{"internalType":"bytes32[]","name":"innerChunk","type":"bytes32[]"},{"internalType":"bytes32[]","name":"outerProof","type":"bytes32[]"},{"internalType":"uint256","name":"index","type":"uint256"}],"name":"verifyVerkleProof","outputs":[{"internalType":"bool","name":"valid","type":"bool"}],"stateMutability":"view","type":"function"}],"evm":{"bytecode":{"linkReferences":{},"object":"608080604052346100165761084c908161001c8239f35b600080fdfe608060408181526004918236101561001657600080fd5b600092833560e01c91826321ff9970146105495782632eb4a7ab1461052f575081633b4c4b25146105155781635f8e0790146104f25781638af70302146103585781638b6958ff146102875781639358928b146102685781639478e83d146100df5750639616af511461008857600080fd5b346100db5760207f8fdc8098b1072c4627a7560c1da68ee7745cc7fd263d83a1ac57176aac0b87b9916100d06100ca6100c036610598565b9391903691610687565b9061072e565b84555160018152a180f35b5080fd5b828434610265576100ef366105d0565b949396839192931561025257509583968651602098899184358382015282815261011881610617565b60019485945b80861061020b5750506101379350895193848092610703565b03600293845afa15610201579291908451959385925b898185106101605787548a51908a148152f35b90919293949597879061017487858a6107f0565b358a87166101d157906101a3918c5191858301528c8201528b815261019881610649565b8b5191828092610703565b0390855afa156101c7576101bc8651975b841c946106de565b92919094939461014d565b87513d87823e3d90fd5b6101ec918c5191858301528c8201528b815261019881610649565b0390855afa156101c7576101bc8651976101b4565b86513d86823e3d90fd5b92509261024261023491610248938d61022589888a6107f0565b35905194859284840190610703565b908152038084520182610665565b936106de565b928a92889261011e565b634e487b7160e01b855260329052602484fd5b80fd5b5050346100db57816003193601126100db576020906001549051908152f35b905034610354576020366003190112610354576001549035106102d15760207ff4d358772b552280f9395158c37bc77ddcbcdeaf62b20aa01276fb89d7ea1923915160018152a180f35b6060817ff4d358772b552280f9395158c37bc77ddcbcdeaf62b20aa01276fb89d7ea192360207fb42f912d2a6c6c7da83228b8b84b12578ffa4267ec2980110bcf1f59c08329869451868152a17f5265736572766573203c20537570706c7920646574656374656421000000000081519160208352601b6020840152820152a180f35b8280fd5b90503461035457610368366105d0565b9592939484156104df5750868395949551602096879187358382015282815261039081610617565b9060019788915b8083106104ab5750505090826103b292875193848092610703565b03600293845afa1561049f57815193928291905b8084106103fe5750509150507f9f06baddad59d2e9771002b48f7985142da5a42b051091f061e36a3ae14a17b395505551908152a180f35b909192939483899161041187858a6107f0565b358c8b1661046f5790610440918a5191858301528a82015289815261043581610649565b895191828092610703565b0390855afa15610465576104598351995b881c946106de565b929190989493986103c6565b85513d84823e3d90fd5b61048a918a5191858301528a82015289815261043581610649565b0390855afa1561046557610459835199610451565b508351903d90823e3d90fd5b928295508194610242916104c66104d59587610234966107f0565b358b5194859284840190610703565b88928b9492610397565b634e487b7160e01b885260329052602487fd5b5050346100db5760209161050b6100ca6100c036610598565b9054149051908152f35b8390346100db5760203660031901126100db573560015580f35b8490346100db57816003193601126100db57602091548152f35b8482346100db5760203660031901126100db5735815580f35b9181601f840112156105935782359167ffffffffffffffff8311610593576020808501948460051b01011161059357565b600080fd5b90606060031983011261059357600435916024359067ffffffffffffffff8211610593576105c891600401610562565b909160443590565b60606003198201126105935767ffffffffffffffff9160043583811161059357826105fd91600401610562565b93909392602435918211610593576105c891600401610562565b6040810190811067ffffffffffffffff82111761063357604052565b634e487b7160e01b600052604160045260246000fd5b6060810190811067ffffffffffffffff82111761063357604052565b90601f8019910116810190811067ffffffffffffffff82111761063357604052565b90929167ffffffffffffffff8411610633578360051b60405192602080946106b182850182610665565b809781520191810192831161059357905b8282106106cf5750505050565b813581529083019083016106c2565b60001981146106ed5760010190565b634e487b7160e01b600052601160045260246000fd5b9081519160005b83811061071b575050016000815290565b806020809284010151818501520161070a565b929190926000915b84518310156107ea576020808460051b8701015190600193848416156000146107b057610784600091604094855191858301528582015284815261077981610649565b845191828092610703565b039060025afa156107a657506107a090600051925b1c926106de565b91610736565b513d6000823e3d90fd5b916107d1600091604094855191858301528582015284815261077981610649565b039060025afa156107a657506107a09060005192610799565b50925050565b91908110156108005760051b0190565b634e487b7160e01b600052603260045260246000fdfea2646970667358221220c73ae585e3f19c1c693b890924721a52d57cb71cee8477f2f84bfe6908efc75d64736f6c63430008140033","opcodes":"PUSH1 0x80 DUP1 PUSH1 0x40 MSTORE CALLVALUE PUSH2 0x16 JUMPI PUSH2 0x84C SWAP1 DUP2 PUSH2 0x1C DUP3 CODECOPY RETURN JUMPDEST PUSH1 0x0 DUP1 REVERT INVALID PUSH1 0x80 PUSH1 0x40 DUP2 DUP2 MSTORE PUSH1 0x4 SWAP2 DUP3 CALLDATASIZE LT ISZERO PUSH2 0x16 JUMPI PUSH1 0x0 DUP1 REVERT JUMPDEST PUSH1 0x0 SWAP3 DUP4 CALLDATALOAD PUSH1 0xE0 SHR SWAP2 DUP3 PUSH4 0x21FF9970 EQ PUSH2 0x549 JUMPI DUP3 PUSH4 0x2EB4A7AB EQ PUSH2 0x52F JUMPI POP DUP2 PUSH4 0x3B4C4B25 EQ PUSH2 0x515 JUMPI DUP2 PUSH4 0x5F8E0790 EQ PUSH2 0x4F2 JUMPI DUP2 PUSH4 0x8AF70302 EQ PUSH2 0x358 JUMPI DUP2 PUSH4 0x8B6958FF EQ PUSH2 0x287 JUMPI DUP2 PUSH4 0x9358928B EQ PUSH2 0x268 JUMPI DUP2 PUSH4 0x9478E83D EQ PUSH2 0xDF JUMPI POP PUSH4 0x9616AF51 EQ PUSH2 0x88 JUMPI PUSH1 0x0 DUP1 REVERT JUMPDEST CALLVALUE PUSH2 0xDB JUMPI PUSH1 0x20 PUSH32 0x8FDC8098B1072C4627A7560C1DA68EE7745CC7FD263D83A1AC57176AAC0B87B9 SWAP2 PUSH2 0xD0 PUSH2 0xCA PUSH2 0xC0 CALLDATASIZE PUSH2 0x598 JUMP JUMPDEST SWAP4 SWAP2 SWAP1 CALLDATASIZE SWAP2 PUSH2 0x687 JUMP JUMPDEST SWAP1 PUSH2 0x72E JUMP JUMPDEST DUP5 SSTORE MLOAD PUSH1 0x1 DUP2 MSTORE LOG1 DUP1 RETURN JUMPDEST POP DUP1 REVERT JUMPDEST DUP3 DUP5 CALLVALUE PUSH2 0x265 JUMPI PUSH2 0xEF CALLDATASIZE PUSH2 0x5D0 JUMP JUMPDEST SWAP5 SWAP4 SWAP7 DUP4 SWAP2 SWAP3 SWAP4 ISZERO PUSH2 0x252 JUMPI POP SWAP6 DUP4 SWAP7 DUP7 MLOAD PUSH1 0x20 SWAP9 DUP10 SWAP2 DUP5 CALLDATALOAD DUP4 DUP3 ADD MSTORE DUP3 DUP2 MSTORE PUSH2 0x118 DUP2 PUSH2 0x617 JUMP JUMPDEST PUSH1 0x1 SWAP5 DUP6 SWAP5 JUMPDEST DUP1 DUP7 LT PUSH2 0x20B JUMPI POP POP PUSH2 0x137 SWAP4 POP DUP10 MLOAD SWAP4 DUP5 DUP1 SWAP3 PUSH2 0x703 JUMP JUMPDEST SUB PUSH1 0x2 SWAP4 DUP5 GAS STATICCALL ISZERO PUSH2 0x201 JUMPI SWAP3 SWAP2 SWAP1 DUP5 MLOAD SWAP6 SWAP4 DUP6 SWAP3 JUMPDEST DUP10 DUP2 DUP6 LT PUSH2 0x160 JUMPI DUP8 SLOAD DUP11 MLOAD SWAP1 DUP11 EQ DUP2 MSTORE RETURN JUMPDEST SWAP1 SWAP2 SWAP3 SWAP4 SWAP5 SWAP6 SWAP8 DUP8 SWAP1 PUSH2 0x174 DUP8 DUP6 DUP11 PUSH2 0x7F0 JUMP JUMPDEST CALLDATALOAD DUP11 DUP8 AND PUSH2 0x1D1 JUMPI SWAP1 PUSH2 0x1A3 SWAP2 DUP13 MLOAD SWAP2 DUP6 DUP4 ADD MSTORE DUP13 DUP3 ADD MSTORE DUP12 DUP2 MSTORE PUSH2 0x198 DUP2 PUSH2 0x649 JUMP JUMPDEST DUP12 MLOAD SWAP2 DUP3 DUP1 SWAP3 PUSH2 0x703 JUMP JUMPDEST SUB SWAP1 DUP6 GAS STATICCALL ISZERO PUSH2 0x1C7 JUMPI PUSH2 0x1BC DUP7 MLOAD SWAP8 JUMPDEST DUP5 SHR SWAP5 PUSH2 0x6DE JUMP JUMPDEST SWAP3 SWAP2 SWAP1 SWAP5 SWAP4 SWAP5 PUSH2 0x14D JUMP JUMPDEST DUP8 MLOAD RETURNDATASIZE DUP8 DUP3 RETURNDATACOPY RETURNDATASIZE SWAP1 REVERT JUMPDEST PUSH2 0x1EC SWAP2 DUP13 MLOAD SWAP2 DUP6 DUP4 ADD MSTORE DUP13 DUP3 ADD MSTORE DUP12 DUP2 MSTORE PUSH2 0x198 DUP2 PUSH2 0x649 JUMP JUMPDEST SUB SWAP1 DUP6 GAS STATICCALL ISZERO PUSH2 0x1C7 JUMPI PUSH2 0x1BC DUP7 MLOAD SWAP8 PUSH2 0x1B4 JUMP JUMPDEST DUP7 MLOAD RETURNDATASIZE DUP7 DUP3 RETURNDATACOPY RETURNDATASIZE SWAP1 REVERT JUMPDEST SWAP3 POP SWAP3 PUSH2 0x242 PUSH2 0x234 SWAP2 PUSH2 0x248 SWAP4 DUP14 PUSH2 0x225 DUP10 DUP9 DUP11 PUSH2 0x7F0 JUMP JUMPDEST CALLDATALOAD SWAP1 MLOAD SWAP5 DUP6 SWAP3 DUP5 DUP5 ADD SWAP1 PUSH2 0x703 JUMP JUMPDEST SWAP1 DUP2 MSTORE SUB DUP1 DUP5 MSTORE ADD DUP3 PUSH2 0x665 JUMP JUMPDEST SWAP4 PUSH2 0x6DE JUMP JUMPDEST SWAP3 DUP11 SWAP3 DUP9 SWAP3 PUSH2 0x11E JUMP JUMPDEST PUSH4 0x4E487B71 PUSH1 0xE0 SHL DUP6 MSTORE PUSH1 0x32 SWAP1 MSTORE PUSH1 0x24 DUP5 REVERT JUMPDEST DUP1 REVERT JUMPDEST POP POP CALLVALUE PUSH2 0xDB JUMPI DUP2 PUSH1 0x3 NOT CALLDATASIZE ADD SLT PUSH2 0xDB JUMPI PUSH1 0x20 SWAP1 PUSH1 0x1 SLOAD SWAP1 MLOAD SWAP1 DUP2 MSTORE RETURN JUMPDEST SWAP1 POP CALLVALUE PUSH2 0x354 JUMPI PUSH1 0x20 CALLDATASIZE PUSH1 0x3 NOT ADD SLT PUSH2 0x354 JUMPI PUSH1 0x1 SLOAD SWAP1 CALLDATALOAD LT PUSH2 0x2D1 JUMPI PUSH1 0x20 PUSH32 0xF4D358772B552280F9395158C37BC77DDCBCDEAF62B20AA01276FB89D7EA1923 SWAP2 MLOAD PUSH1 0x1 DUP2 MSTORE LOG1 DUP1 RETURN JUMPDEST PUSH1 0x60 DUP2 PUSH32 0xF4D358772B552280F9395158C37BC77DDCBCDEAF62B20AA01276FB89D7EA1923 PUSH1 0x20 PUSH32 0xB42F912D2A6C6C7DA83228B8B84B12578FFA4267EC2980110BCF1F59C0832986 SWAP5 MLOAD DUP7 DUP2 MSTORE LOG1 PUSH32 0x5265736572766573203C20537570706C79206465746563746564210000000000 DUP2 MLOAD SWAP2 PUSH1 0x20 DUP4 MSTORE PUSH1 0x1B PUSH1 0x20 DUP5 ADD MSTORE DUP3 ADD MSTORE LOG1 DUP1 RETURN JUMPDEST DUP3 DUP1 REVERT JUMPDEST SWAP1 POP CALLVALUE PUSH2 0x354 JUMPI PUSH2 0x368 CALLDATASIZE PUSH2 0x5D0 JUMP JUMPDEST SWAP6 SWAP3 SWAP4 SWAP5 DUP5 ISZERO PUSH2 0x4DF JUMPI POP DUP7 DUP4 SWAP6 SWAP5 SWAP6 MLOAD PUSH1 0x20 SWAP7 DUP8 SWAP2 DUP8 CALLDATALOAD DUP4 DUP3 ADD MSTORE DUP3 DUP2 MSTORE PUSH2 0x390 DUP2 PUSH2 0x617 JUMP JUMPDEST SWAP1 PUSH1 0x1 SWAP8 DUP9 SWAP2 JUMPDEST DUP1 DUP4 LT PUSH2 0x4AB JUMPI POP POP POP SWAP1 DUP3 PUSH2 0x3B2 SWAP3 DUP8 MLOAD SWAP4 DUP5 DUP1 SWAP3 PUSH2 0x703 JUMP JUMPDEST SUB PUSH1 0x2 SWAP4 DUP5 GAS STATICCALL ISZERO PUSH2 0x49F JUMPI DUP2 MLOAD SWAP4 SWAP3 DUP3 SWAP2 SWAP1 JUMPDEST DUP1 DUP5 LT PUSH2 0x3FE JUMPI POP POP SWAP2 POP POP PUSH32 0x9F06BADDAD59D2E9771002B48F7985142DA5A42B051091F061E36A3AE14A17B3 SWAP6 POP SSTORE MLOAD SWAP1 DUP2 MSTORE LOG1 DUP1 RETURN JUMPDEST SWAP1 SWAP2 SWAP3 SWAP4 SWAP5 DUP4 DUP10 SWAP2 PUSH2 0x411 DUP8 DUP6 DUP11 PUSH2 0x7F0 JUMP JUMPDEST CALLDATALOAD DUP13 DUP12 AND PUSH2 0x46F JUMPI SWAP1 PUSH2 0x440 SWAP2 DUP11 MLOAD SWAP2 DUP6 DUP4 ADD MSTORE DUP11 DUP3 ADD MSTORE DUP10 DUP2 MSTORE PUSH2 0x435 DUP2 PUSH2 0x649 JUMP JUMPDEST DUP10 MLOAD SWAP2 DUP3 DUP1 SWAP3 PUSH2 0x703 JUMP JUMPDEST SUB SWAP1 DUP6 GAS STATICCALL ISZERO PUSH2 0x465 JUMPI PUSH2 0x459 DUP4 MLOAD SWAP10 JUMPDEST DUP9 SHR SWAP5 PUSH2 0x6DE JUMP JUMPDEST SWAP3 SWAP2 SWAP1 SWAP9 SWAP5 SWAP4 SWAP9 PUSH2 0x3C6 JUMP JUMPDEST DUP6 MLOAD RETURNDATASIZE DUP5 DUP3 RETURNDATACOPY RETURNDATASIZE SWAP1 REVERT JUMPDEST PUSH2 0x48A SWAP2 DUP11 MLOAD SWAP2 DUP6 DUP4 ADD MSTORE DUP11 DUP3 ADD MSTORE DUP10 DUP2 MSTORE PUSH2 0x435 DUP2 PUSH2 0x649 JUMP JUMPDEST SUB SWAP1 DUP6 GAS STATICCALL ISZERO PUSH2 0x465 JUMPI PUSH2 0x459 DUP4 MLOAD SWAP10 PUSH2 0x451 JUMP JUMPDEST POP DUP4 MLOAD SWAP1 RETURNDATASIZE SWAP1 DUP3 RETURNDATACOPY RETURNDATASIZE SWAP1 REVERT JUMPDEST SWAP3 DUP3 SWAP6 POP DUP2 SWAP5 PUSH2 0x242 SWAP2 PUSH2 0x4C6 PUSH2 0x4D5 SWAP6 DUP8 PUSH2 0x234 SWAP7 PUSH2 0x7F0 JUMP JUMPDEST CALLDATALOAD DUP12 MLOAD SWAP5 DUP6 SWAP3 DUP5 DUP5 ADD SWAP1 PUSH2 0x703 JUMP JUMPDEST DUP9 SWAP3 DUP12 SWAP5 SWAP3 PUSH2 0x397 JUMP JUMPDEST PUSH4 0x4E487B71 PUSH1 0xE0 SHL DUP9 MSTORE PUSH1 0x32 SWAP1 MSTORE PUSH1 0x24 DUP8 REVERT JUMPDEST POP POP CALLVALUE PUSH2 0xDB JUMPI PUSH1 0x20 SWAP2 PUSH2 0x50B PUSH2 0xCA PUSH2 0xC0 CALLDATASIZE PUSH2 0x598 JUMP JUMPDEST SWAP1 SLOAD EQ SWAP1 MLOAD SWAP1 DUP2 MSTORE RETURN JUMPDEST DUP4 SWAP1 CALLVALUE PUSH2 0xDB JUMPI PUSH1 0x20 CALLDATASIZE PUSH1 0x3 NOT ADD SLT PUSH2 0xDB JUMPI CALLDATALOAD PUSH1 0x1 SSTORE DUP1 RETURN JUMPDEST DUP5 SWAP1 CALLVALUE PUSH2 0xDB JUMPI DUP2 PUSH1 0x3 NOT CALLDATASIZE ADD SLT PUSH2 0xDB JUMPI PUSH1 0x20 SWAP2 SLOAD DUP2 MSTORE RETURN JUMPDEST DUP5 DUP3 CALLVALUE PUSH2 0xDB JUMPI PUSH1 0x20 CALLDATASIZE PUSH1 0x3 NOT ADD SLT PUSH2 0xDB JUMPI CALLDATALOAD DUP2 SSTORE DUP1 RETURN JUMPDEST SWAP2 DUP2 PUSH1 0x1F DUP5 ADD SLT ISZERO PUSH2 0x593 JUMPI DUP3 CALLDATALOAD SWAP2 PUSH8 0xFFFFFFFFFFFFFFFF DUP4 GT PUSH2 0x593 JUMPI PUSH1 0x20 DUP1 DUP6 ADD SWAP5 DUP5 PUSH1 0x5 SHL ADD ADD GT PUSH2 0x593 JUMPI JUMP JUMPDEST PUSH1 0x0 DUP1 REVERT JUMPDEST SWAP1 PUSH1 0x60 PUSH1 0x3 NOT DUP4 ADD SLT PUSH2 0x593 JUMPI PUSH1 0x4 CALLDATALOAD SWAP2 PUSH1 0x24 CALLDATALOAD SWAP1 PUSH8 0xFFFFFFFFFFFFFFFF DUP3 GT PUSH2 0x593 JUMPI PUSH2 0x5C8 SWAP2 PUSH1 0x4 ADD PUSH2 0x562 JUMP JUMPDEST SWAP1 SWAP2 PUSH1 0x44 CALLDATALOAD SWAP1 JUMP JUMPDEST PUSH1 0x60 PUSH1 0x3 NOT DUP3 ADD SLT PUSH2 0x593 JUMPI PUSH8 0xFFFFFFFFFFFFFFFF SWAP2 PUSH1 0x4 CALLDATALOAD DUP4 DUP2 GT PUSH2 0x593 JUMPI DUP3 PUSH2 0x5FD SWAP2 PUSH1 0x4 ADD PUSH2 0x562 JUMP JUMPDEST SWAP4 SWAP1 SWAP4 SWAP3 PUSH1 0x24 CALLDATALOAD SWAP2 DUP3 GT PUSH2 0x593 JUMPI PUSH2 0x5C8 SWAP2 PUSH1 0x4 ADD PUSH2 0x562 JUMP JUMPDEST PUSH1 0x40 DUP2 ADD SWAP1 DUP2 LT PUSH8 0xFFFFFFFFFFFFFFFF DUP3 GT OR PUSH2 0x633 JUMPI PUSH1 0x40 MSTORE JUMP JUMPDEST PUSH4 0x4E487B71 PUSH1 0xE0 SHL PUSH1 0x0 MSTORE PUSH1 0x41 PUSH1 0x4 MSTORE PUSH1 0x24 PUSH1 0x0 REVERT JUMPDEST PUSH1 0x60 DUP2 ADD SWAP1 DUP2 LT PUSH8 0xFFFFFFFFFFFFFFFF DUP3 GT OR PUSH2 0x633 JUMPI PUSH1 0x40 MSTORE JUMP JUMPDEST SWAP1 PUSH1 0x1F DUP1 NOT SWAP2 ADD AND DUP2 ADD SWAP1 DUP2 LT PUSH8 0xFFFFFFFFFFFFFFFF DUP3 GT OR PUSH2 0x633 JUMPI PUSH1 0x40 MSTORE JUMP JUMPDEST SWAP1 SWAP3 SWAP2 PUSH8 0xFFFFFFFFFFFFFFFF DUP5 GT PUSH2 0x633 JUMPI DUP4 PUSH1 0x5 SHL PUSH1 0x40 MLOAD SWAP3 PUSH1 0x20 DUP1 SWAP5 PUSH2 0x6B1 DUP3 DUP6 ADD DUP3 PUSH2 0x665 JUMP JUMPDEST DUP1 SWAP8 DUP2 MSTORE ADD SWAP2 DUP2 ADD SWAP3 DUP4 GT PUSH2 0x593 JUMPI SWAP1 JUMPDEST DUP3 DUP3 LT PUSH2 0x6CF JUMPI POP POP POP POP JUMP JUMPDEST DUP2 CALLDATALOAD DUP2 MSTORE SWAP1 DUP4 ADD SWAP1 DUP4 ADD PUSH2 0x6C2 JUMP JUMPDEST PUSH1 0x0 NOT DUP2 EQ PUSH2 0x6ED JUMPI PUSH1 0x1 ADD SWAP1 JUMP JUMPDEST PUSH4 0x4E487B71 PUSH1 0xE0 SHL PUSH1 0x0 MSTORE PUSH1 0x11 PUSH1 0x4 MSTORE PUSH1 0x24 PUSH1 0x0 REVERT JUMPDEST SWAP1 DUP2 MLOAD SWAP2 PUSH1 0x0 JUMPDEST DUP4 DUP2 LT PUSH2 0x71B JUMPI POP POP ADD PUSH1 0x0 DUP2 MSTORE SWAP1 JUMP JUMPDEST DUP1 PUSH1 0x20 DUP1 SWAP3 DUP5 ADD ADD MLOAD DUP2 DUP6 ADD MSTORE ADD PUSH2 0x70A JUMP JUMPDEST SWAP3 SWAP2 SWAP1 SWAP3 PUSH1 0x0 SWAP2 JUMPDEST DUP5 MLOAD DUP4 LT ISZERO PUSH2 0x7EA JUMPI PUSH1 0x20 DUP1 DUP5 PUSH1 0x5 SHL DUP8 ADD ADD MLOAD SWAP1 PUSH1 0x1 SWAP4 DUP5 DUP5 AND ISZERO PUSH1 0x0 EQ PUSH2 0x7B0 JUMPI PUSH2 0x784 PUSH1 0x0 SWAP2 PUSH1 0x40 SWAP5 DUP6 MLOAD SWAP2 DUP6 DUP4 ADD MSTORE DUP6 DUP3 ADD MSTORE DUP5 DUP2 MSTORE PUSH2 0x779 DUP2 PUSH2 0x649 JUMP JUMPDEST DUP5 MLOAD SWAP2 DUP3 DUP1 SWAP3 PUSH2 0x703 JUMP JUMPDEST SUB SWAP1 PUSH1 0x2 GAS STATICCALL ISZERO PUSH2 0x7A6 JUMPI POP PUSH2 0x7A0 SWAP1 PUSH1 0x0 MLOAD SWAP3 JUMPDEST SHR SWAP3 PUSH2 0x6DE JUMP JUMPDEST SWAP2 PUSH2 0x736 JUMP JUMPDEST MLOAD RETURNDATASIZE PUSH1 0x0 DUP3 RETURNDATACOPY RETURNDATASIZE SWAP1 REVERT JUMPDEST SWAP2 PUSH2 0x7D1 PUSH1 0x0 SWAP2 PUSH1 0x40 SWAP5 DUP6 MLOAD SWAP2 DUP6 DUP4 ADD MSTORE DUP6 DUP3 ADD MSTORE DUP5 DUP2 MSTORE PUSH2 0x779 DUP2 PUSH2 0x649 JUMP JUMPDEST SUB SWAP1 PUSH1 0x2 GAS STATICCALL ISZERO PUSH2 0x7A6 JUMPI POP PUSH2 0x7A0 SWAP1 PUSH1 0x0 MLOAD SWAP3 PUSH2 0x799 JUMP JUMPDEST POP SWAP3 POP POP JUMP JUMPDEST SWAP2 SWAP1 DUP2 LT ISZERO PUSH2 0x800 JUMPI PUSH1 0x5 SHL ADD SWAP1 JUMP JUMPDEST PUSH4 0x4E487B71 PUSH1 0xE0 SHL PUSH1 0x0 MSTORE PUSH1 0x32 PUSH1 0x4 MSTORE PUSH1 0x24 PUSH1 0x0 REVERT INVALID LOG2 PUSH5 0x6970667358 0x22 SLT KECCAK256 0xC7 GASPRICE 0xE5 DUP6 0xE3 CALL SWAP13 SHR PUSH10 0x3B890924721A52D57CB7 SHR 0xEE DUP5 PUSH24 0xF2F84BFE6908EFC75D64736F6C6343000814003300000000 "},"methodIdentifiers":{"circulatingSupply()":"9358928b","merkleRoot()":"2eb4a7ab","setSupply(uint256)":"3b4c4b25","updateRoot(bytes32)":"21ff9970","updateRootWithProof(bytes32,bytes32[],uint256)":"9616af51","updateVerkleRootWithProof(bytes32[],bytes32[],uint256)":"8af70302","verifyProof(uint256)":"8b6958ff","verifySMTProof(bytes32,bytes32[],uint256)":"5f8e0790","verifyVerkleProof(bytes32[],bytes32[],uint256)":"9478e83d"}}}}}